{
  "contractName": "Messaging",
  "abi": [
    {
      "anonymous": false,
      "inputs": [
        {
          "indexed": true,
          "internalType": "address",
          "name": "sender",
          "type": "address"
        },
        {
          "indexed": true,
          "internalType": "address",
          "name": "receiver",
          "type": "address"
        },
        {
          "indexed": false,
          "internalType": "string",
          "name": "content",
          "type": "string"
        },
        {
          "indexed": false,
          "internalType": "uint256",
          "name": "timestamp",
          "type": "uint256"
        }
      ],
      "name": "MessageSent",
      "type": "event"
    },
    {
      "inputs": [
        {
          "internalType": "uint256",
          "name": "",
          "type": "uint256"
        }
      ],
      "name": "messages",
      "outputs": [
        {
          "internalType": "address",
          "name": "sender",
          "type": "address"
        },
        {
          "internalType": "address",
          "name": "receiver",
          "type": "address"
        },
        {
          "internalType": "string",
          "name": "content",
          "type": "string"
        },
        {
          "internalType": "uint256",
          "name": "timestamp",
          "type": "uint256"
        }
      ],
      "stateMutability": "view",
      "type": "function"
    },
    {
      "inputs": [
        {
          "internalType": "address",
          "name": "_receiver",
          "type": "address"
        },
        {
          "internalType": "string",
          "name": "_content",
          "type": "string"
        }
      ],
      "name": "sendMessage",
      "outputs": [],
      "stateMutability": "nonpayable",
      "type": "function"
    },
    {
      "inputs": [],
      "name": "getMessages",
      "outputs": [
        {
          "components": [
            {
              "internalType": "address",
              "name": "sender",
              "type": "address"
            },
            {
              "internalType": "address",
              "name": "receiver",
              "type": "address"
            },
            {
              "internalType": "string",
              "name": "content",
              "type": "string"
            },
            {
              "internalType": "uint256",
              "name": "timestamp",
              "type": "uint256"
            }
          ],
          "internalType": "struct Messaging.Message[]",
          "name": "",
          "type": "tuple[]"
        }
      ],
      "stateMutability": "view",
      "type": "function"
    }
  ],
  "bytecode": "0x608060405234801561001057600080fd5b5061070b806100206000396000f3fe608060405234801561001057600080fd5b50600436106100415760003560e01c80630d80fefd146100465780635ff6cbf314610072578063de6f24bb14610087575b600080fd5b61005961005436600461052b565b61009c565b604051610069949392919061058e565b60405180910390f35b61007a61016e565b60405161006991906105cb565b61009a61009536600461046a565b61028c565b005b600081815481106100ac57600080fd5b60009182526020909120600490910201805460018201546002830180546001600160a01b0393841695509290911692916100e590610684565b80601f016020809104026020016040519081016040528092919081815260200182805461011190610684565b801561015e5780601f106101335761010080835404028352916020019161015e565b820191906000526020600020905b81548152906001019060200180831161014157829003601f168201915b5050505050908060030154905084565b60606000805480602002602001604051908101604052809291908181526020016000905b82821015610283576000848152602090819020604080516080810182526004860290920180546001600160a01b03908116845260018201541693830193909352600283018054929392918401916101e890610684565b80601f016020809104026020016040519081016040528092919081815260200182805461021490610684565b80156102615780601f1061023657610100808354040283529160200191610261565b820191906000526020600020905b81548152906001019060200180831161024457829003601f168201915b5050505050815260200160038201548152505081526020019060010190610192565b50505050905090565b604080516080810182523381526001600160a01b03848116602080840191825293830185815242606085015260008054600181018255908052845160049091027f290decd9548b62a8d60345a988386fc84ba6bc95484008f6362f93160ef3e563810180549286166001600160a01b031993841617815593517f290decd9548b62a8d60345a988386fc84ba6bc95484008f6362f93160ef3e5648201805491909616921691909117909355518051939485949293610372937f290decd9548b62a8d60345a988386fc84ba6bc95484008f6362f93160ef3e56590910192909101906103d1565b50606082015181600301555050826001600160a01b0316336001600160a01b03167f7e49d574e0305424aa957cb3f69b25f92aa58d53fdee73f05e40019210a70bce84426040516103c4929190610662565b60405180910390a3505050565b8280546103dd90610684565b90600052602060002090601f0160209004810192826103ff5760008555610445565b82601f1061041857805160ff1916838001178555610445565b82800160010185558215610445579182015b8281111561044557825182559160200191906001019061042a565b50610451929150610455565b5090565b5b808211156104515760008155600101610456565b6000806040838503121561047c578182fd5b82356001600160a01b0381168114610492578283fd5b915060208381013567ffffffffffffffff808211156104af578384fd5b818601915086601f8301126104c2578384fd5b8135818111156104d4576104d46106bf565b604051601f8201601f19168101850183811182821017156104f7576104f76106bf565b604052818152838201850189101561050d578586fd5b81858501868301378585838301015280955050505050509250929050565b60006020828403121561053c578081fd5b5035919050565b60008151808452815b818110156105685760208185018101518683018201520161054c565b818111156105795782602083870101525b50601f01601f19169290920160200192915050565b6001600160a01b038581168252841660208201526080604082018190526000906105ba90830185610543565b905082606083015295945050505050565b60208082528251828201819052600091906040908185019080840286018301878501865b8381101561065457888303603f19018552815180516001600160a01b0390811685528882015116888501528681015160808886018190529061063382870182610543565b606093840151969093019590955250948701949250908601906001016105ef565b509098975050505050505050565b6000604082526106756040830185610543565b90508260208301529392505050565b60028104600182168061069857607f821691505b602082108114156106b957634e487b7160e01b600052602260045260246000fd5b50919050565b634e487b7160e01b600052604160045260246000fdfea26469706673582212208e099b6a9b3b3116561af81da195ba15812e30616f025f52dd7492fcc16774d164736f6c63430008000033",
  "immutableReferences": {},
  "source": "// filepath: secure-messaging-app/blockchain/contracts/Messaging.sol\npragma solidity ^0.8.0;\n\ncontract Messaging {\n    struct Message {\n        address sender;\n        address receiver;\n        string content;\n        uint timestamp;\n    }\n\n    Message[] public messages;\n\n    event MessageSent(address indexed sender, address indexed receiver, string content, uint timestamp);\n\n    function sendMessage(address _receiver, string memory _content) public {\n        Message memory newMessage = Message({\n            sender: msg.sender,\n            receiver: _receiver,\n            content: _content,\n            timestamp: block.timestamp\n        });\n\n        messages.push(newMessage);\n        emit MessageSent(msg.sender, _receiver, _content, block.timestamp);\n    }\n\n    function getMessages() public view returns (Message[] memory) {\n        return messages;\n    }\n}",
  "sourcePath": "E:\\secure-messaging-app\\secure-messaging-app\\blockchain\\contracts\\Messaging.sol",
  "compiler": {
    "name": "solc",
    "version": "0.8.0+commit.c7dfd78e.Emscripten.clang"
  },
  "schemaVersion": "3.4.16",
  "updatedAt": "2025-03-09T12:29:32.443Z",
  "devdoc": {
    "kind": "dev",
    "methods": {},
    "version": 1
  },
  "userdoc": {
    "kind": "user",
    "methods": {},
    "version": 1
  }
}